:0A0000000C943D000C9400000C94D9
:10000A0000000C9400000C9400000C9400000C9466
:10001A0000000C9400000C9400000C9400000C9456
:10002A0000000C9400000C9400000C9400000C9446
:10003A0000000C9400000C9400000C9400000C9436
:10004A0000000C9400000C9400001027E8036400E0
:10005A000A000100001000011000010001002D4EED
:10006A00414E00494E460000010060026600000051
:10007A00F894EE27ECBBF1E0F5BFE5BF8DE0A2E016
:10008A00BB27ED938A95E9F780E098E0A0E6ED9327
:10009A000197E9F7E2E7F0E085919591009761F021
:1000AA00A591B59105901590BF01F00105900D92AB
:1000BA000197E1F7FB01F0CFEFE5EDBFE8E0EEBF16
:1000CA00C0E6D2E00C947F00EAB1E861EAB9E0B593
:1000DA00E668E0BDE7E4E9B9E0E0E0BD08955F9BCA
:1000EA00FECFECB10895AA935D9BFECFE881ECB9EF
:1000FA00219608952297E8DFEFEFE7BBE0E0E8BB3F
:10010A00C09AA8EEB3E00E949B00C098DDDFE7DF4B
:10011A00E883A881E8DFA881A13311F4C09A04C05A
:10012A00A881A23309F4C098F1CFFFCF109639F015
:10013A00A8958DEC9AE00197F1F71197C9F7089500
:00000001FF
