:0E0000000C942F000C9400000C9400000C9443
:10000E0000000C9400000C9400000C9400000C9462
:10001E0000000C9400000C9400000C9400000C9452
:10002E0000000C9400000C9400000C9400000C9442
:10003E0000000C9400000C9400000C9400000C9432
:10004E0000000C94000001010200040054000000A6
:10005E00F894EE27ECBBF1E0F5BFE5BF8DE0A2E032
:10006E00BB27ED938A95E9F780E098E0A0E6ED9343
:10007E000197E9F7E6E5F0E085919591009761F03B
:10008E00A591B59105901590BF01F00105900D92C7
:10009E000197E1F7FB01F0CFEFE5EDBFE8E0EEBF32
:1000AE00C0E6D2E00C945B00EFEDEABBE0E2EBBB06
:1000BE00EFEDE1BBE0E2E2BBE7EFE7BBE8E0E8BB78
:1000CE00EFE3E4BBE0ECE5BB9798AD9ADE9A949A29
:1000DE00B298B09AE1E0E41559F5969ADF9AB19A82
:1000EE00DD9908C0959B06C0B39904C09E9902C0C5
:1000FE009F9B01C009C0929AA2E3B0E00E94AD009E
:10010E009298E1E05E2E12C0DD9B08C0959906C064
:10011E00B39B04C09E9B02C09F9901C007C0939AD7
:10012E00A2E3B0E00E94AD009398552444240CC085
:10013E00442051F4E1E0E51519F49398929A04C025
:10014E00552011F49298939AC5CFFFCF109639F09F
:10015E00A8958DEC9AE00197F1F71197C9F70895DC
:00000001FF
