:060000000C942F000C948B
:1000060000000C9400000C9400000C9400000C946A
:1000160000000C9400000C9400000C9400000C945A
:1000260000000C9400000C9400000C9400000C944A
:1000360000000C9400000C9400000C9400000C943A
:1000460000000C9400000C9400000C9400000101C8
:100056000200040054000000F894EE27ECBBF1E027
:10006600F5BFE5BF8DE0A2E0BB27ED938A95E9F7E2
:1000760080E098E0A0E6ED930197E9F7E6E5F0E089
:1000860085919591009761F0A591B5910590159090
:10009600BF01F00105900D920197E1F7FB01F0CF4A
:1000A600EFE5EDBFE8E0EEBFC0E6D2E00C945B0002
:1000B600EFEDEABBE0E2EBBBEFEBE4BBE0E4E5BB74
:1000C600EFEFE1BBE0E0E2BBEFEFE7BBE0E0E8BB70
:1000D6009798AD9A9698C398E1E0E41509F08FC019
:1000E6007724E2E07E1608F088C06624E2E06E1609
:1000F60008F07FC09924E2E09E1608F076C08824B6
:10010600E2E08E1608F06DC0E1E0E81519F4DE9A1B
:10011600C29A04C0882011F4DE98C298E1E0E9157D
:1001260019F4DF9AC19A04C0992011F4DF98C19896
:10013600E1E0E61519F4949AC09A04C0662011F419
:100146009498C098E1E0E71519F4AF9A959A04C01F
:10015600772011F4AF989598AAE0B0E00E941401B8
:10016600E0E0CD99E1E00E2EA0E0DE99A1E0E0E02E
:10017600DF99E1E0EA2BAE2FE0E09499E1E0EA2B8B
:10018600AE2FE0E09599E1E0EA2B0E941E01E01512
:10019600C9F0E0E09E99E1E00E2EA0E0C299A1E050
:1001A600E0E0C199E1E0EA2BAE2FE0E0C099E1E0A2
:1001B600EA2BAE2FE0E0AF99E1E0EA2B0E941E01A8
:1001C600E01539F4929A29D0929827D0E1E05E2E74
:1001D60006C0939A22D0939820D0552402C08394C7
:1001E6008FCF552011F0939486CF552011F063944C
:1001F6007DCF552011F0739474CF44240CC0442055
:1002060051F4E1E0E51519F49398929A04C055204B
:1002160011F49298939A60CFFFCFA2E3B0E00C94CA
:100226001401109639F0A8958DEC9AE00197F1F734
:100236001197C9F70895EE23E1E009F0EE27089536
:00000001FF
