:060000000C942F000C948B
:1000060000000C9400000C9400000C9400000C946A
:1000160000000C9400000C9400000C9400000C945A
:1000260000000C9400000C9400000C9400000C944A
:1000360000000C9400000C9400000C9400000C943A
:1000460000000C9400000C9400000C9400000101C8
:100056000200040054000000F894EE27ECBBF1E027
:10006600F5BFE5BF8DE0A2E0BB27ED938A95E9F7E2
:1000760080E098E0A0E6ED930197E9F7E6E5F0E089
:1000860085919591009761F0A591B5910590159090
:10009600BF01F00105900D920197E1F7FB01F0CF4A
:1000A600EFE5EDBFE8E0EEBFC0E6D2E00C945B0002
:1000B600EEEFEABBE1E0EBBBEDEFE4BBE2E0E5BB74
:1000C600EFEFE1BBE0E0E2BBE1E0E41509F08FC051
:1000D6007724E2E07E1608F088C06624E2E06E1619
:1000E60008F07FC09924E2E09E1608F076C08824C6
:1000F600E2E08E1608F06DC0E1E0E81519F4D99A31
:10010600AD9A04C0882011F4D998AD98E1E0E915BC
:1001160019F4DA9AAC9A04C0992011F4DA98AC98DA
:10012600E1E0E61519F4DB9AAB9A04C0662011F4F7
:10013600DB98AB98E1E0E71519F4AA9ADC9A04C0BB
:10014600772011F4AA98DC98AAE0B0E00E940C018E
:10015600E0E0C899E1E00E2EA0E0D999A1E0E0E048
:10016600DA99E1E0EA2BAE2FE0E0DB99E1E0EA2B59
:10017600AE2FE0E0DC99E1E0EA2B0E941601E015E3
:10018600C9F0E0E09999E1E00E2EA0E0AD99A1E07A
:10019600E0E0AC99E1E0EA2BAE2FE0E0AB99E1E0DC
:1001A600EA2BAE2FE0E0AA99E1E0EA2B0E941601C5
:1001B600E01539F4929A29D0929827D0E1E05E2E84
:1001C60006C0939A22D0939820D0552402C08394D7
:1001D6008FCF552011F0939486CF552011F063945C
:1001E6007DCF552011F0739474CF44240CC0442065
:1001F60051F4E1E0E51519F49398929A04C055205C
:1002060011F49298939A60CFFFCFA2E3B0E00C94DA
:100216000C01109639F0A8958DEC9AE00197F1F74C
:100226001197C9F70895EE23E1E009F0EE27089546
:00000001FF
