:080000000C9436000C94000082
:100008000C9400000C9400000C9400000C94000068
:100018000C9400000C9400000C9400000C94000058
:100028000C9400000C9400000C9400000C94000048
:100038000C9400000C9400000C9400000C94000038
:100048000C9400000C9400000C94000000000000C8
:100058000000000000000000000000000100050092
:1000680054000000F894EE27ECBBF1E0F5BFE5BFC3
:100078008DE0A2E0BB27ED938A95E9F780E098E050
:10008800A0E6ED930197E9F7E4E6F0E08591959114
:10009800009761F0A591B59105901590BF01F00109
:1000A80005900D920197E1F7FB01F0CFEFE5EDBF69
:1000B800E8E0EEBFC0E6D2E00C94620059D3EFE767
:1000C800E1BBE0E8E2BB929A5CD39298939A59D349
:1000D8009398969A56D39698959A53D39598949AB6
:1000E80050D39498879B62C044244424E6E04E167B
:1000F80008F05BC0442051F4CBD15E2EE1E0E51559
:1001080021F49298939A41D350C04DC0E1E0E41590
:1001180059F434D15E2E40D3E1E0E51521F4929AEA
:10012800939833D342C03FC0E2E0E41569F445D068
:100138005E2EE1E0E51539F4929893989698959A91
:1001480094982ED332C02FC0E3E0E41569F44CD262
:100158005E2EE1E0E51539F4929893989698959873
:10016800949A1ED322C01FC0E4E0E41569F49CD21F
:100178005E2EE1E0E51539F4929893989698959A51
:10018800949A0ED312C00FC0E5E0E41561F4FED1D5
:100198005E2EE1E0E51539F492989398969A959831
:1001A8009498FED202C04394A1CF05C09298939828
:1001B80096989598949896CFFFCF2D978DE0A0E0CC
:1001C800B0E0E6E5F0E00E94F5040E94E704ECD216
:1001D800E3E8E4BBECE7E5BBAF98A0E0AF99A1E0AA
:1001E800A23008F0C6C050E0503108F0BBC0D4D2ED
:1001F800352F20E0243038F4E22FF0E0DE011F969E
:10020800DAD22F5FF7CFC8D23F85EA89EF87FE01A0
:1002180072963083C1D23889E989E88BFE017196DC
:100228003083BAD2EA89E03011F4DE9801C0DE9A50
:10023800E989E03011F4DC9801C0DC9AE889E03003
:1002480011F4DA9801C0DA9AEF85E03011F4D89801
:1002580001C0D89AA1D2A52FBB27E3E0F0E00E9405
:10026800C1044E2F403108F07BC0342F20E02430E9
:1002780038F4E22FF0E0DE011B969DD22F5FF7CF16
:100288008BD23B85EE85EB87FE013E96308384D288
:100298003C85ED85EC87FE013D9630837DD2EE8569
:1002A800E03011F4DD9801C0DD9AED85E03011F4FD
:1002B800DB9801C0DB9AEC85E03011F4D99801C0D5
:1002C800D99AEB85E03011F4A99801C0A99A64D2B3
:1002D800A42FA50FE0E0AF99E1E0EA0F0E2F20E090
:1002E8002530C0F4E22FF0E0DE011696EA0FFB1F7E
:1002F8000F01E02FF0E0A1E0B0E00E94CF04D001B0
:10030800EC93A02FB0E0E2E0F0E00E94BC040E2FD6
:100318002F5FE6CF41D23E81EA85EE83FE013A9611
:1003280030833AD23F81E985EF83FE0139963083E5
:1003380033D254D231F45DD221F466D211F46FD2A3
:1003480009F002C011E00AC049D231F452D221F4B6
:100358005BD211F464D211F010E002C04D5F82CF7D
:100368005F5F42CFE0E0AF99E1E0EF5FE5BBE150CE
:1003780034CFE12F0E94EE04639608950E94E704AB
:1003880011E0EEEFEABBE1E0EBBBEDEFE4BBE2E04E
:10039800E5BBDE9800E0023008F075C030E032308E
:1003A80008F06DC020E0223008F065C050E05230FF
:1003B80008F05DC0513019F4D99AAD9A04C0503094
:1003C80011F4D998AD98213019F4DA9AAC9A04C08E
:1003D800203011F4DA98AC98313019F4DB9AAB9AE2
:1003E80004C0303011F4DB98AB98013019F4AA9AA4
:1003F800DC9A04C0003011F4AA98DC98CDD1E0E072
:10040800C899E1E00E2EA0E0D999A1E0E0E0DA99E0
:10041800E1E0EA2BAE2FE0E0DB99E1E0EA2BAE2F3A
:10042800E0E0DC99E1E0EA2B0E94A404E015C9F0C1
:10043800E0E09999E1E00E2EA0E0AD99A1E0E0E0BE
:10044800AC99E1E0EA2BAE2FE0E0AB99E1E0EA2BD2
:10045800AE2FE0E0AA99E1E0EA2B0E94A404E0159F
:1004680011F411E002C010E002C05F5FA0CF1030AD
:1004780011F02F5F98CF103011F03F5F90CF103000
:1004880011F00F5F88CFE12F0E94EE0426960895A1
:100498001A930A9389D1E0E0E4BBEFEFE5BBDA9A5F
:1004A80000E0043028F5A02FBB27E2E0F0E00E942E
:1004B800C104309729F0E1E0E03011F0E1E001C03B
:1004C800E0E0E03011F4D89801C0D89AA0E0D89BB9
:1004D800A1E0E1E0EA2311F4DB9801C0DB9ADC9AA1
:1004E800DD984FD1DA984DD1DA9A4BD10F5FD9CF39
:1004F80000E0043008F046C0003071F4999B06C053
:100508009B9904C09C9902C09E9B01C002C011E047
:1005180002C010E037C02FC0013071F4999B06C0AB
:100528009B9904C09C9902C09E9B01C002C011E027
:1005380002C010E027C01FC0023071F4999906C0AC
:100548009B9904C09C9902C09E9B01C002C011E007
:1005580002C010E017C00FC0033069F4999B06C0B1
:100568009B9904C09C9902C09E9B01C002C011E0E7
:1005780002C010E007C005D1DA9803D1DA9A0F5FFC
:1005880000D1B7CFE12F0991199108951A9311E07D
:10059800EEE6EABBE1E9EBBBE8E3E4BBE7ECE5BB8D
:1005A800DE98D99ADB9A9D989B9ADD9ADA9A9C9A5A
:1005B800D89908C0DC9B06C09E9904C0999902C0CE
:1005C8009A9B01C002C011E00CC0D89B08C0DC99FE
:1005D80006C09E9B04C0999B02C09A9901C001C0A5
:1005E80010E0E12F1991089525D1D89A30E03230E2
:1005F80008F059C0EC81E03011F4DA9801C0DA9AB9
:10060800ED81E03011F4DC9801C0DC9AEE81E03035
:1006180011F4DE9801C0DE9AEF81E03011F4AF9852
:1006280001C0AF9AE885E03011F4AD9801C0AD9AE9
:10063800E985E03011F4AA9801C0AA9AADD00BD18F
:1006480051F411D141F417D131F41DD121F423D142
:1006580011F429D109F002C011E00FC0FCD051F00B
:1006680002D141F008D131F00ED121F014D111F0AE
:100678001AD109F402C010E016C08ED000E006308E
:1006880080F419D1AC91A13019F415D1E0E006C07D
:1006980012D1EC91E03019F40ED1E1E0EC930F5F48
:1006A800EECF3F5FA4CF5FC0C5D0D89A30E03230DC
:1006B80008F059C0EC81E03011F4DA9801C0DA9AF8
:1006C800ED81E03011F4DC9801C0DC9AEE81E03075
:1006D80011F4DE9801C0DE9AEF81E03011F4AF9892
:1006E80001C0AF9AE885E03011F4AD9801C0AD9A29
:1006F800E985E03011F4AA9801C0AA9A4DD0E2D059
:1007080051F4E8D041F4EED031F4F4D021F4FAD029
:1007180011F400D109F002C011E00FC0D3D051F09C
:10072800D9D041F0DFD031F0E5D021F0EBD011F095
:10073800F1D009F402C010E016C02ED000E0063057
:1007480080F4B9D0AC91A13019F4B5D0E0E006C07E
:10075800B2D0EC91E03019F4AED0E1E0EC930F5F49
:10076800EECF3F5FA4CFE12F0E94F0042A960895B0
:10077800E5E5EABBEAEAEBBBE4EAE4BBEBE5E5BBAB
:100788000895A4E6B0E00C949604969895989498E9
:10079800A8EEB3E00C949604A2E3B0E00C9496049F
:1007A800A8EEB3E00C94960411E000E0EFEFEABB8A
:1007B800E0E0EBBB0895EA0FFB1F0F01E32FF0E029
:1007C800A1E0B0E00E94CF04D001EC93A32FB0E0E9
:1007D800E2E0F0E00E94BC043E2F0895A0E09E995C
:1007E800A1E0EA85B0E0A7FDBFEFF0E0EA17FB075C
:1007F8000895A0E09D99A1E0E985B0E0A7FDBFEFCD
:10080800F0E0EA17FB070895A0E09C99A1E0E885CD
:10081800B0E0A7FDBFEFF0E0EA17FB070895A0E0FE
:100828009B99A1E0EF81B0E0A7FDBFEFF0E0EA17E8
:10083800FB0708952697E0E0E883E1E0E983E0E03C
:10084800EA83E1E0EB83E0E0EC83E1E0ED830E9402
:10085800E90411E08DCFA0E0C999A1E0E0E0DA9BBE
:10086800E1E0EA170895A0E0CB99A1E0E0E0DC9B85
:10087800E1E0EA170895A0E0CD99A1E0E0E0DE9B71
:10088800E1E0EA170895A0E09E99A1E0E0E0AF9BBF
:10089800E1E0EA170895A0E09C99A1E0E0E0AD9BB3
:1008A800E1E0EA170895A0E09999A1E0E0E0AA9BA9
:1008B800E1E0EA170895E02FF0E0DE011496AE0FAC
:1008C800BF1F0895A0E0C999A1E0E0E0DA99E1E04E
:1008D800EA170895A0E0CB99A1E0E0E0DC99E1E017
:1008E800EA170895A0E0CD99A1E0E0E0DE99E1E003
:1008F800EA170895A0E09E99A1E0E0E0AF99E1E051
:10090800EA170895A0E09C99A1E0E0E0AD99E1E044
:10091800EA170895A0E09999A1E0E0E0AA99E1E03A
:10092800EA170895109639F0A8958DEC9AE001978A
:10093800F1F71197C9F70895F195E195F0400895F9
:10094800EE23E1E009F0EE2708950024112490E158
:10095800AA0FBB1F001C111C0E1A1F0A18F40E0E3A
:100968001F1E01C0A1609A9599F7FD01D001089555
:100978001CD0EBDF0EF4E0DF0895E894B7FF04C065
:10098800A095B09511966894F7FDD6DFDEDFFD01DE
:100998000EF4D2DF0895E894F7FF02C0CDDF689423
:1009A800EA23FB230EF4C8DF0895E894F7FF02C09A
:1009B800C3DF6894B7FF06C0A095B095119600F8FC
:1009C800039400FA08955A934A933A932A931A93F0
:1009D8000A9308955D814C813B812A8119810881A0
:1009E8000895AC0FBD1F05900D928A95E1F7089503
:00000001FF
