:100000000C9435000C9400000C9400000C9400003B
:100010000C9400000C9400000C9400000C94000060
:100020000C9400000C9400000C9400000C94000050
:100030000C9400000C9400000C9400000C94000040
:100040000C9400000C9400000C9400000C94000030
:100050000C940000010100010001000102000400F5
:1000600054000600600256000000F894EE27ECBB36
:10007000F1E0F5BFE5BF8DE0A2E0BB27ED938A95E7
:10008000E9F780E098E0A0E6ED930197E9F7ECE569
:10009000F0E085919591009761F0A591B59105905B
:1000A0001590BF01F00105900D920197E1F7FB015A
:1000B000F0CFEFE5EDBFE8E0EEBFC0E6D2E00C9494
:1000C0006100EFE5EABBE0EAEBBBEFEDE1BBE0E2AC
:1000D000E2BBEFEDE4BBE0E2E5BBEFEFE7BBE5E061
:1000E000E8BBAC9A9798AF98DC9AE1E0E41509F088
:1000F0007AC06624E2E06E1608F073C0E0916002F8
:10010000E03011F4DE9801C0DE9AE0916102E03047
:1001100011F4949801C0949AE0916202E03011F4D5
:10012000969801C0969AE0916302E03011F4C3986A
:1001300001C0C39AE0916402E03011F4C19801C09B
:10014000C19AE0916502E03011F4AE9801C0AE9A18
:10015000AAE0B0E00E94360154D051F45AD041F4E4
:1001600060D031F466D021F46CD011F472D009F073
:1001700009C0929AA2E3B0E00E9436019298E1E0B1
:100180005E2E15C03ED051F044D041F04AD031F03F
:1001900050D021F056D011F05CD009F408C0939AE9
:1001A000A2E3B0E00E943601939855241AC0AAE059
:1001B000B0E00E9436017724E6E07E1680F451D04C
:1001C000A081A13019F44DD0A0E006C04AD0E08152
:1001D000E03019F446D0A1E0A0837394EDCF63948E
:1001E00089CF44240CC0442051F4E1E0E51519F412
:1001F0009398929A04C0552011F49298939A75CFCF
:10020000FFCFA0E0CD99A1E0E0E0DE99E1E0EA17C0
:100210000895A0E0CF99A1E0E0E09499E1E0EA1729
:100220000895A0E08599A1E0E0E09699E1E0EA1761
:100230000895A0E0B299A1E0E0E0C399E1E0EA17F7
:100240000895A0E0B099A1E0E0E0C199E1E0EA17EB
:100250000895A0E09D99A1E0E0E0AE99E1E0EA1701
:100260000895E72DF0E0E05AFD4F0895109639F01B
:10027000A8958DEC9AE00197F1F71197C9F70895C9
:00000001FF
