:0E0000000C9435000C9400000C9400000C943D
:10000E0000000C9400000C9400000C9400000C9462
:10001E0000000C9400000C9400000C9400000C9452
:10002E0000000C9400000C9400000C9400000C9442
:10003E0000000C9400000C9400000C9400000C9432
:10004E0000000C94000001010001000100010200FB
:10005E00040054000600600256000000F894EE27DB
:10006E00ECBBF1E0F5BFE5BF8DE0A2E0BB27ED9361
:10007E008A95E9F780E098E0A0E6ED930197E9F71D
:10008E00ECE5F0E085919591009761F0A591B59121
:10009E0005901590BF01F00105900D920197E1F7C3
:1000AE00FB01F0CFEFE5EDBFE8E0EEBFC0E6D2E03A
:1000BE000C946100EFE5EABBE0EAEBBBEFEDE1BBD0
:1000CE00E0E2E2BBEFEDE4BBE0E2E5BBEAEFE7BB6B
:1000DE00E5E0E8BBAC9A9798AF98DC9AE1E0E415BE
:1000EE0009F079C06624E2E06E1608F072C0E09165
:1000FE006002E03011F4DE9801C0DE9AE0916102F8
:10010E00E03011F4949801C0949AE0916202E030CC
:10011E0011F4969801C0969AE0916302E03011F4C2
:10012E00C39801C0C39AE0916402E03011F4C19803
:10013E0001C0C19AE0916502E03011F4AE9801C0A1
:10014E00AE9AA2E3B0E00E94350153D051F459D0DB
:10015E0041F45FD031F465D021F46BD011F471D03D
:10016E0009F009C0929AA8ECB0E00E94350192986D
:10017E00E1E05E2E14C03DD051F043D041F049D0A5
:10018E0031F04FD021F055D011F05BD009F407C0FB
:10019E00939AA8ECB0E00E94350193985524A2E3FF
:1001AE00B0E00E9435017724E6E07E1680F451D04F
:1001BE00A081A13019F44DD0A0E006C04AD0E08154
:1001CE00E03019F446D0A1E0A0837394EDCF639490
:1001DE008ACF44240CC0442051F4E1E0E51519F413
:1001EE009398929A04C0552011F49298939A76CFD0
:1001FE00FFCFA0E0CD99A1E0E0E0DE9BE1E0EA17C1
:10020E000895A0E0CF99A1E0E0E0949BE1E0EA1729
:10021E000895A0E08599A1E0E0E0969BE1E0EA1761
:10022E000895A0E0B299A1E0E0E0C39BE1E0EA17F7
:10023E000895A0E0B099A1E0E0E0C19BE1E0EA17EB
:10024E000895A0E09D99A1E0E0E0AE9BE1E0EA1701
:10025E000895E72DF0E0E05AFD4F0895109639F01D
:10026E00A8958DEC9AE00197F1F71197C9F70895CB
:00000001FF
