:0A0000000C9439000C9400000C94DD
:10000A0000000C9400000C9400000C9400000C9466
:10001A0000000C9400000C9400000C9400000C9456
:10002A0000000C9400000C9400000C9400000C9446
:10003A0000000C9400000C9400000C9400000C9436
:10004A0000000C9400000C9400001027E8036400E0
:10005A000A00010000100001100001000101000067
:10006A000400040066000000F894EE27ECBBF1E0FF
:10007A00F5BFE5BF8DE0A2E0BB27ED938A95E9F7CE
:10008A0080E098E0A0E6ED930197E9F7EAE6F0E070
:10009A0085919591009761F0A591B591059015907C
:1000AA00BF01F00105900D920197E1F7FB01F0CF36
:1000BA00EFE5EDBFE8E0EEBFC0E6D2E00C946500E4
:1000CA00EFEFEABBE0E0EBBBEFE3E4BBE0ECE5BB60
:1000DA00E0EFE7BBEFE0E8BBEFEFE1BBE0E0E2BB5C
:1000EA00AD9A9798DE98DF98E1E0E41509F09FC091
:1000FA007724E4E07E1640F5A72DBB27E2E0F0E086
:10010A000E944F01309729F0E1E0E03011F0E1E080
:10011A0001C0E0E0E03011F4DD9801C0DD9AA0E012
:10012A00DD9BA1E0E1E0EA2311F4949801C0949ADE
:10013A00959A96980E942A01DF9A0E942A01DF98CE
:10014A000E942A017394D5CF7724E4E07E1608F042
:10015A006CC07720B1F49E9906C0B09B04C0B19BD5
:10016A0002C0B39B01C007C0929A0E942A019298CA
:10017A00E1E05E2E05C0939A0E942A0193985524C5
:10018A004AC0E1E0E715B1F49E9B06C0B09904C0ED
:10019A00B19B02C0B39B01C007C0929A0E942A0178
:1001AA009298E1E05E2E05C0939A0E942A019398E4
:1001BA00552431C0E2E0E715B1F49E9906C0B09B20
:1001CA0004C0B19B02C0B39B01C007C0929A0E94AF
:1001DA002A019298E1E05E2E05C0939A0E942A01B4
:1001EA009398552418C0E3E0E715A9F49E9B06C02E
:1001FA00B09904C0B19B02C0B39B01C007C0929AD8
:10020A000E942A019298E1E05E2E05C0939A0E940C
:10021A002A01939855240E942A01DF9A0E942A01F2
:10022A00DF9873940E942A0190CF44240CC0442082
:10023A0051F4E1E0E51519F49398929A04C0552017
:10024A0011F49298939A50CFFFCFA2E3B0E00C94A6
:10025A002E01109639F0A8958DEC9AE00197F1F7E6
:10026A001197C9F70895F195E195F0400895002492
:10027A00112490E1AA0FBB1F001C111C0E1A1F0AA1
:10028A0018F40E0E1F1E01C0A1609A9599F7FD0180
:10029A00D0010895E894B7FF04C0A095B0951196CF
:1002AA006894F7FDE0DFE3DFFD010EF4DCDF08957B
:00000001FF
